:020000040000FA
:100000000C945D000C9485000C9485000C94850084
:100010000C9485000C9485000C9485000C9485004C
:100020000C9485000C9485000C9485000C9485003C
:100030000C9485000C9485000C9485000C9485002C
:100040000C9486030C9485000C9454030C942E039A
:100050000C9485000C9485000C9485000C9485000C
:100060000C94D0030C9485000000000800020100ED
:100070000003040700000000000000000000000072
:10008000250028002B0000000000240027002A0083
:10009000040404040404040402020202020203032E
:1000A0000303030301020408102040800102040836
:1000B0001020010204081020EF0411241FBECFEF0E
:1000C000D8E0DEBFCDBF11E0A0E0B1E0EEECFEE095
:1000D00002C005900D92A832B107D9F722E0A8E23C
:1000E000B1E001C01D92A639B207E1F710E0CDE5FD
:1000F000D0E004C02197FE010E945F07CC35D107F4
:10010000C9F70E9428050C9465070C940000089517
:100110000895AF92BF92CF92DF92EF92FF920F932A
:100120001F93CF93DF936C017B018B01040F151F8D
:10013000EB015E01AE18BF08C017D10759F06991F5
:10014000D601ED91FC910190F081E02DC601099559
:10015000892B79F7C501DF91CF911F910F91FF9006
:10016000EF90DF90CF90BF90AF900895FC01538D3A
:10017000448D252F30E0842F90E0821B930B541781
:1001800010F0CF96089501970895FC01918D828D0E
:10019000981761F0A28DAE0FBF2FB11D5D968C91A7
:1001A000928D9F5F9F73928F90E008958FEF9FEFE6
:1001B0000895FC01918D828D981731F0828DE80FA2
:1001C000F11D858D90E008958FEF9FEF0895FC015C
:1001D000918D228D892F90E0805C9F4F821B910929
:1001E0008F73992708958DEE91E00E94E70021E03A
:1001F000892B09F420E0822F089580E090E0892B7C
:1002000029F00E94F30081110C9400000895FC0174
:10021000A48DA80FB92FB11DA35ABF4F2C91848D67
:1002200090E001968F739927848FA689B7892C93C4
:10023000A089B1898C91837080648C93938D848D17
:10024000981306C00288F389E02D80818F7D80831A
:100250000895EF92FF920F931F93CF93DF93EC01DA
:1002600081E0888F9B8D8C8D98131AC0E889F9895D
:10027000808185FF15C09FB7F894EE89FF89608360
:10028000E889F98980818370806480839FBF81E0E1
:1002900090E0DF91CF911F910F91FF90EF90089523
:1002A000F62E0B8D10E00F5F1F4F0F731127E02EFE
:1002B0008C8D8E110CC00FB607FCFACFE889F98936
:1002C000808185FFF5CFCE010E940701F1CFEB8D34
:1002D000EC0FFD2FF11DE35AFF4FF0829FB7F8940A
:1002E0000B8FEA89FB8980818062CFCFCF93DF9328
:1002F000EC01888D8823B9F0AA89BB89E889F9893E
:100300008C9185FD03C0808186FD0DC00FB607FC72
:10031000F7CF8C9185FFF2CF808185FFEDCFCE01A5
:100320000E940701E9CFDF91CF91089590E0FC0191
:10033000E859FF4F2491FC01EC55FF4F3491FC012B
:10034000E057FF4FE491EE23C9F0222339F0233028
:1003500001F1A8F4213019F1223029F1F0E0EE0F7B
:10036000FF1FE458FF4FA591B4918FB7F894EC911B
:10037000611126C030953E233C938FBF08952730EE
:10038000A9F02830C9F0243049F7809180008F7D92
:1003900003C0809180008F7780938000DFCF84B589
:1003A0008F7784BDDBCF84B58F7DFBCF8091B0008C
:1003B0008F778093B000D2CF8091B0008F7DF9CF3E
:1003C0003E2BDACF3FB7F894809191019091920142
:1003D000A0919301B091940126B5A89B05C02F3F31
:1003E00019F00196A11DB11D3FBFBA2FA92F982F5B
:1003F0008827BC01CD01620F711D811D911D42E056
:10040000660F771F881F991F4A95D1F7089520918D
:100410006901260F3327331F21323105ECF4209177
:10042000C101FC0190E080E0243069F082E0089591
:10043000A09169012191AC01475B5E4FA40FB52FDC
:10044000B11D2C930196861798F380916901680F6E
:100450006093690180E0089581E008951092C101E0
:1004600081E08093C00110929B0161E082E10E94D3
:10047000960161E083E10E949601E9EBF0E0808162
:100480008E7F808380818D7F808388E48093B80015
:1004900085E48093BC000895CF93DF9391E090931F
:1004A00048018823B9F0C091B800D091BA0080917A
:1004B000BC008A7B8093BC0060E082E10E949601D0
:1004C00060E083E10E9496010E942E02D093BA0060
:1004D000C093B800DF91CF9108950895E0919A01FB
:1004E00080919901E81730F4F0E0E85DFE4F8081DB
:1004F00090E008958FEF9FEF089590919A01809179
:1005000099012FEF3FEF981748F4E92FF0E0E85DED
:10051000FE4F208130E09F5F90939A01C9010895BA
:100520008091990190919A01891B990B0895CF921E
:10053000DF92EF92FF920F931F93CF93DF937C0193
:10054000CB018A012091C701222389F0EB016B01C5
:10055000C40ED51ECC15DD0569F06991D701ED916A
:10056000FC910190F081E02DC7010995F3CF642F34
:100570000E940702C801DF91CF911F910F91FF9058
:10058000EF90DF90CF900895CF93DF931F92CDB778
:10059000DEB769832091C7012223F9F02091EA0197
:1005A000203258F021E030E0FC013383228390E0D8
:1005B00080E00F90DF91CF9108958091C801E82FDE
:1005C000F0E0E753FE4F998190838F5F8093C801DD
:1005D0008093EA0181E090E0ECCF61E0CE010196EA
:1005E0000E940702F7CF90E080E0089585ED8093A8
:1005F000BC008091C3019091C401A091C501B0914C
:10060000C6010796A11DB11D23E0B695A795979544
:1006100087952A95D1F72091BC0024FD03C0109244
:10062000C10108954091C3015091C4016091C50179
:100630007091C601452B462B472B69F30097A10506
:10064000B10541F02AE22A95F1F700C00197A1090E
:10065000B109E1CF8091C2010C944C021F920F921C
:100660000FB60F9211242F933F934F935F936F9385
:100670007F938F939F93AF93BF93EF93FF938DEEF1
:1006800091E00E940701FF91EF91BF91AF919F917F
:100690008F917F916F915F914F913F912F910F902B
:1006A0000FBE0F901F9018951F920F920FB60F92CA
:1006B00011242F938F939F93EF93FF93E091FD016C
:1006C000F091FE018081E0910302F091040282FD2D
:1006D0001BC09081809106028F5F8F73209107026B
:1006E000821741F0E0910602F0E0E351FE4F958F52
:1006F00080930602FF91EF919F918F912F910F9020
:100700000FBE0F901F9018958081F4CF1F920F920B
:100710000FB60F9211242F933F938F939F93AF9314
:10072000BF9380918D0190918E01A0918F01B09126
:10073000900130918C0123E0230F2D3758F501965D
:10074000A11DB11D20938C0180938D0190938E018A
:10075000A0938F01B09390018091910190919201AB
:10076000A0919301B09194010196A11DB11D8093B8
:10077000910190939201A0939301B0939401BF9142
:10078000AF919F918F913F912F910F900FBE0F903E
:100790001F90189526E8230F0296A11DB11DD2CFF8
:1007A0001F920F920FB60F9211242F933F934F93E6
:1007B0005F936F937F938F939F93AF93BF93EF93C9
:1007C000FF938091B900887F803609F44AC0F0F524
:1007D000883209F4A7C018F5803109F49BC0B8F439
:1007E000882309F4F9C0883009F494C0FF91EF918F
:1007F000BF91AF919F918F917F916F915F914F9139
:100800003F912F910F900FBE0F901F901895883138
:1008100009F488C0803251F78093BF0114C080343E
:1008200009F49DC040F48033B9F38833F9F680931E
:10083000BF0185ECB0C0803509F485C0883509F466
:1008400096C0883499F60E94F602D0CF883909F410
:100850008CC038F5883729F050F4883611F080378D
:1008600029F683E08093C10110928B0157C088382C
:1008700009F47BC0803919F0803809F0B7CF809136
:100880008B01803208F071C0E0918B0181E08E0F06
:1008900080938B018091BB00F0E0E559FE4F80838F
:1008A0003DC0803B39F0E0F4803A09F479C0883AE1
:1008B00009F09CCF84E08093C10110926A011092EC
:1008C0006901E0919701F091980109958091690182
:1008D00081110FC081E0809369011092490109C024
:1008E000803C09F4A6CF883C09F4A3CF883B09F0EB
:1008F0007DCFE0916A0181E08E0F80936A01F0E084
:10090000E75BFE4F80818093BB0090916A018091EC
:10091000690129C080919C018093BB0085EC809384
:10092000BC0064CF9091BE018091BD01981758F52D
:10093000E091BE0181E08E0F8093BE01F0E0E356AE
:10094000FE4F8081E9CFE091BE0181E08E0F809360
:10095000BE018091BB00F0E0E356FE4F8083909192
:10096000BE018091BD019817C8F285E8D8CFE0910B
:10097000BE0181E08E0F8093BE018091BB00F0E04C
:10098000E356FE4F80838091C00181115CCF81E0EE
:1009900080939B0184EA8093BC001092C10126CF12
:1009A00085EC8093BC001092C10180918B01803254
:1009B00030F4E0918B01F0E0E559FE4F1082609138
:1009C0008B0170E0E0919501F09196018BE691E04A
:1009D000099510928B010ACF1092BF0134CFEDEE32
:1009E000F1E01382128288EE93E0A0E0B0E084830D
:1009F0009583A683B78324E031E03183208325ECFF
:100A000030E03587248724EC30E03787268720ECD8
:100A100030E0318B208B21EC30E0338B228B22ECC9
:100A200030E0358B248B26EC30E0378B268B118E13
:100A3000128E138E148EEAE8F2E0138212828483FF
:100A40009583A683B78386E191E09183808308959F
:100A5000CF93DF93CDB7DEB7A1970FB6F894DEBF83
:100A60000FBECDBF789484B5826084BD84B58160AB
:100A700084BD85B5826085BD85B5816085BD809169
:100A80006E00816080936E001092810080918100E1
:100A900082608093810080918100816080938100D9
:100AA000809180008160809380008091B10084609B
:100AB0008093B1008091B00081608093B0008091FC
:100AC0007A00846080937A0080917A0082608093BB
:100AD0007A0080917A00816080937A0080917A0018
:100AE000806880937A001092C10010929A0110924F
:100AF00099011092C8011092EA010E942E0287E823
:100B000090E0909398018093970188E890E090930B
:100B1000960180939501E091FD01F091FE0182E044
:100B20008083E091F901F091FA011082E091FB01DC
:100B3000F091FC018FEC808310920502E09101029C
:100B4000F091020286E08083E091FF01F0910002C3
:100B5000808180618083E091FF01F09100028081BB
:100B600088608083E091FF01F091000280818068BD
:100B70008083E091FF01F091000280818F7D80836E
:100B8000E1EBF0E02491EDE9F0E08491882399F025
:100B900090E0880F991FFC01EA57FF4FA591B4918F
:100BA000FC01E458FF4F859194918FB7F894EC9134
:100BB000E22BEC938FBF9AE0C92ED12CE12CF12CC3
:100BC00020E0A22E20E0B22E32E0632E88248A9408
:100BD0009924939489E0782E9092C7017092E9014C
:100BE0001092C8011092EA016091EB018AE892E04C
:100BF0000E94C4021091EA01113208F08DC00E94D7
:100C0000E2011B012C018091C101811160C0609241
:100C1000C1019092C0018092BF011092BE01109359
:100C2000BD01A9ECB1E0EDE9F1E01813E1C01092CB
:100C30009C0180919C01826180939C0180919B0129
:100C4000813009F0D9C010929B010E94E2011B0182
:100C50002C0180919C018093BB008091C3019091F5
:100C6000C401A091C501B091C601892B8A2B8B2BA1
:100C700099F00E94E2010091C3011091C4012091FA
:100C8000C5013091C60162197309840995090617D7
:100C9000170728073907E0F18091BC0083FDD9CF01
:100CA00025EC2093BC000E94E2011B012C018091E5
:100CB000C101823009F4A4C08091BF018F3F61F16E
:100CC0008091BF01803241F18091BF0125C08091A8
:100CD000C3019091C401A091C501B091C601892BB7
:100CE0008A2B8B2B09F48FCF0E94E2012091C30144
:100CF0003091C4014091C5015091C6016219730938
:100D000084099509261737074807590708F07BCF4C
:100D10008091C2010E944C021092C8011092EA0117
:100D20001092C7018091EB019091EC0101968D32F8
:100D3000E1E09E070CF086C09093EC018093EB01FC
:100D40002090EB013090EC01032C000C4408550876
:100D500057FE7DC06DE28DEE91E00E9429012227B1
:100D60003327A901221933094409550919A28E0113
:100D70000F5D1F4FCA01B901A70196010E943D07EF
:100D8000605DF80162938F01211531054105510520
:100D900089F70115110561F001900020E9F73197FD
:100DA000AF01401B510BB8018DEE91E00E9489000C
:100DB00042E050E064E271E08DEE91E00E94890033
:100DC0008091EB019091EC0161E0873991050CF085
:100DD00060E08DE00E949601A114B10409F4FCCEFC
:100DE0000E94F300882309F4F5CE0E940000F0CEA3
:100DF0009D9191938F5F19CF85EE8093BC0053CF67
:100E00008091C3019091C401A091C501B091C60128
:100E1000892B8A2B8B2B09F44ACF0E94E201009187
:100E2000C3011091C4012091C5013091C60162191E
:100E3000730984099509061717072807390708F069
:100E400036CF66CF1092EC011092EB0179CFA20160
:100E5000910119A28E010F5D1F4FCA01B901A701AF
:100E600096010E943D07605DF80162938F01211594
:100E700031054105510589F78CCFA1E21A2EAA1B35
:100E8000BB1BFD010DC0AA1FBB1FEE1FFF1FA2173A
:100E9000B307E407F50720F0A21BB30BE40BF50B37
:100EA000661F771F881F991F1A9469F760957095C0
:100EB000809590959B01AC01BD01CF010895EE0F87
:100EC000FF1F0590F491E02D0994F894FFCF0000E6
:100ED000000029018900B6007601E700C500D900AD
:100EE00000000000C4029702F3026D0290027D022E
:060EF0006E020D0A000075
:107E0000112484B714BE81FFF0D085E080938100F7
:107E100082E08093C00088E18093C10086E0809377
:107E2000C20080E18093C4008EE0C9D0259A86E02C
:107E300020E33CEF91E0309385002093840096BBD3
:107E4000B09BFECF1D9AA8958150A9F7CC24DD24C4
:107E500088248394B5E0AB2EA1E19A2EF3E0BF2EE7
:107E6000A2D0813461F49FD0082FAFD0023811F036
:107E7000013811F484E001C083E08DD089C08234E0
:107E800011F484E103C0853419F485E0A6D080C0E4
:107E9000853579F488D0E82EFF2485D0082F10E0AE
:107EA000102F00270E291F29000F111F8ED06801E7
:107EB0006FC0863521F484E090D080E0DECF843638
:107EC00009F040C070D06FD0082F6DD080E0C81688
:107ED00080E7D80618F4F601B7BEE895C0E0D1E017
:107EE00062D089930C17E1F7F0E0CF16F0E7DF06D8
:107EF00018F0F601B7BEE89568D007B600FCFDCFD4
:107F0000A601A0E0B1E02C9130E011968C91119780
:107F100090E0982F8827822B932B1296FA010C0160
:107F200087BEE89511244E5F5F4FF1E0A038BF0790
:107F300051F7F601A7BEE89507B600FCFDCF97BE46
:107F4000E89526C08437B1F42ED02DD0F82E2BD052
:107F50003CD0F601EF2C8F010F5F1F4F84911BD097
:107F6000EA94F801C1F70894C11CD11CFA94CF0C13
:107F7000D11C0EC0853739F428D08EE10CD085E9AC
:107F80000AD08FE07ACF813511F488E018D01DD067
:107F900080E101D065CF982F8091C00085FFFCCF94
:107FA0009093C60008958091C00087FFFCCF809118
:107FB000C00084FD01C0A8958091C6000895E0E648
:107FC000F0E098E1908380830895EDDF803219F02E
:107FD00088E0F5DFFFCF84E1DECF1F93182FE3DFCA
:107FE0001150E9F7F2DF1F91089580E0E8DFEE27F6
:047FF000FF270994CA
:027FFE00040479
:00000001FF
