:100000000C9458000C9480000C9480000C94800098
:100010000C9480000C9480000C9480000C94800060
:100020000C9480000C9480000C9480000C94800050
:100030000C9480000C9480000C9480000C94800040
:100040000C9433040C9480000C9480000C94800079
:100050000C9480000C9480000C9480000C94800020
:100060000C947D040C948000000000002500280002
:100070002B00040404040404040402020202020229
:10008000030303030303010204081020408001025C
:1000900004081020010204081020000000080002DB
:1000A00001000003040700000000000000009C05A0
:1000B00011241FBECFEFD8E0DEBFCDBF11E0A0E01E
:1000C000B1E0E0EEFFE002C005900D92A435B1076B
:1000D000D9F722E0A4E5B1E001C01D92A733B20731
:1000E000E1F710E0C8E5D0E004C02197FE010E94CE
:1000F000E807C735D107C9F70E94C8050C94EE0779
:100100000C94000008950895AF92BF92CF92DF92B1
:10011000EF92FF920F931F93CF93DF936C017B01BC
:100120008B01040F151FEB015E01AE18BF08C0174D
:10013000D10759F06991D601ED91FC910190F081C0
:10014000E02DC6010995892B79F7C501DF91CF9183
:100150001F910F91FF90EF90DF90CF90BF90AF90E5
:10016000089590E0FC01E656FF4F2491FC01EA5708
:10017000FF4F3491FC01EE58FF4FE491EE23C9F09C
:10018000222339F0233001F1A8F4213019F1223073
:1001900029F1F0E0EE0FFF1FE859FF4FA591B49150
:1001A0008FB7F894EC91611126C030953E233C93B3
:1001B0008FBF08952730A9F02830C9F0243049F7BF
:1001C000809180008F7D03C0809180008F77809325
:1001D0008000DFCF84B58F7784BDDBCF84B58F7D82
:1001E000FBCF8091B0008F778093B000D2CF809109
:1001F000B0008F7DF9CF3E2BDACF3FB7F8948091D6
:10020000090290910A02A0910B02B0910C0226B54E
:10021000A89B05C02F3F19F00196A11DB11D3FBF3E
:10022000BA2FA92F982F8827BC01CD01620F711D0D
:10023000811D911D42E0660F771F881F991F4A9507
:10024000D1F708958F929F92AF92BF92CF92DF9293
:10025000EF92FF926B017C010E94FD004B015C015B
:10026000C114D104E104F104B9F00E94FD00681941
:1002700079098A099B09683E73408105910580F3DD
:1002800021E0C21AD108E108F10888EE880E83E067
:10029000981EA11CB11CE4CFFF90EF90DF90CF908F
:1002A000BF90AF909F908F9008952091BA01260F34
:1002B0003327331F21323105ECF42091DE01FC019C
:1002C00090E080E0243069F082E00895A091BA01C6
:1002D0002191AC0146565E4FA40FB52FB11D2C9352
:1002E0000196861798F38091BA01680F6093BA015E
:1002F00080E0089581E008951092DE0181E080930E
:10030000E0011092DF0161E082E10E94B10061E052
:1003100083E10E94B100E9EBF0E080818E7F808371
:1003200080818D7F808388E48093B80085E480930A
:10033000BC000895CF93DF9391E0909399018823B7
:10034000B9F0C091B800D091BA008091BC008A7B0E
:100350008093BC0060E082E10E94B10060E083E134
:100360000E94B1000E947C01D093BA00C093B800F3
:10037000DF91CF9108950895E091120280911102CA
:10038000E81730F4F0E0EC58FE4F808190E00895DB
:100390008FEF9FEF089590911202809111022FEF3D
:1003A0003FEF981748F4E92FF0E0EC58FE4F20811A
:1003B00030E09F5F90931202C9010895809111026D
:1003C00090911202891B990B0895CF92DF92EF92C0
:1003D000FF920F931F93CF93DF937C01CB018A0190
:1003E00020911602222389F0EB016B01C40ED51E69
:1003F000CC15DD0569F06991D701ED91FC91019073
:10040000F081E02DC7010995F3CF642F0E945501BB
:10041000C801DF91CF911F910F91FF90EF90DF9076
:10042000CF900895CF93DF931F92CDB7DEB7698346
:10043000209116022223F9F020911302203258F065
:1004400021E030E0FC013383228390E080E00F90D4
:10045000DF91CF91089580911402E82FF0E0EC5ADB
:10046000FE4F998190838F5F8093140280931302D3
:1004700081E090E0ECCF61E0CE0101960E94550151
:10048000F7CFCF92DF92EF92FF920F931F93CF930C
:10049000DF93D091130281E0D13208F09CC0C0916B
:1004A00015020E94FD006B017C018091DE0181112B
:1004B0006CC082E08093DE0181E08093E0018FEFE9
:1004C0008093DD0110920202D0930102A4E5B1E015
:1004D000E1EEF1E080E0D8138DC01092030280912C
:1004E0000302CC0FC82BC09303028091DF0181303F
:1004F00009F084C01092DF010E94FD006B017C01B5
:10050000809103028093BB008091950190919601A8
:10051000A0919701B0919801892B8A2B8B2BA1F088
:100520000E94FD0000919501109196012091970184
:10053000309198016C197D098E099F0906171707DC
:100540002807390708F442C08091BC0083FDD8CF4A
:1005500085EC8093BC000E94FD006B017C018091C2
:10056000DE01823009F44CC08091DD018F3F09F437
:1005700069C08091DD01803209F466C08091DD019F
:10058000803309F463C084E026C080919501909186
:100590009601A0919701B0919801892B8A2B8B2B02
:1005A00009F483CF0E94FD000091950110919601FE
:1005B00020919701309198016C197D098E099F094E
:1005C000061717072807390708F06FCF80919401A5
:1005D0000E949A0185E01092140210921302109268
:1005E0001602DF91CF911F910F91FF90EF90DF9056
:1005F000CF9008959D9191938F5F6DCF85EEA9CF98
:100600008091950190919601A0919701B0919801E8
:10061000892B8A2B8B2B09F4A2CF0E94FD0000911D
:1006200095011091960120919701309198016C19D4
:100630007D098E099F09061717072807390708F053
:100640008ECFC4CF80E0C7CF82E0C5CF83E0C3CFD9
:100650001F93CF93DF93162FC3E2D2E0AE85BF8501
:100660009B8521E0209316029093150210921402AC
:1006700010921302ED91FC9111970190F081E02D01
:10068000682FCD0109958E859F85DC01ED91FC9148
:100690000190F081E02D612F09958E859F85DF9176
:1006A000CF911F910C944102AF92BF92CF92DF92F3
:1006B000EF92FF920F931F93CF93DF937C016B0117
:1006C000DC011A968C9191E09093160280931502AA
:1006D0001092140210921302EB01042F10E08BE829
:1006E000A82EBB24B394F701868597859E012C190B
:1006F0003D092017310764F46991DC01ED91FC910B
:100700000190F081E02D0995C5010197F1F7EBCF3C
:10071000DF91CF911F910F91FF90EF90DF90CF90DD
:10072000BF90AF900C944102CF93DF9300D01F9203
:10073000CDB7DEB71B8290E899838A8342E0BE0181
:100740006F5F7F4F83E292E00E9454030F900F90FF
:100750000F90DF91CF9108950F931F93CF93DF9365
:10076000CDB7DEB729970FB6F894DEBF0FBECDBF69
:100770008B0128E0829FC001112480640E949403B1
:1007800080E48983F801DE011296C8010896219160
:100790002D93E817F907D9F749E0BE016F5F7F4F46
:1007A00083E292E00E94540329960FB6F894DEBFCC
:1007B0000FBECDBFDF91CF911F910F910895CF93C1
:1007C000DF9300D01F92CDB7DEB71B8220E42983D0
:1007D0006A8342E0BE016F5F7F4F0E94540381E055
:1007E00090E00F900F900F90DF91CF9108950895B2
:1007F00090E080E0089585ED8093BC0080919501A4
:1008000090919601A0919701B09198010796A11D32
:10081000B11D23E0B695A795979587952A95D1F7B1
:100820002091BC0024FD03C01092DE010895409188
:100830009501509196016091970170919801452B17
:10084000462B472B69F30097A105B10541F02AE239
:100850002A95F1F700C00197A109B109E1CF809174
:1008600094010C949A011F920F920FB60F921124CB
:100870002F933F938F939F93AF93BF9380910502E4
:1008800090910602A0910702B091080230910402F3
:1008900023E0230F2D3758F50196A11DB11D20939C
:1008A00004028093050290930602A0930702B0937E
:1008B00008028091090290910A02A0910B02B09166
:1008C0000C020196A11DB11D8093090290930A02AA
:1008D000A0930B02B0930C02BF91AF919F918F91A7
:1008E0003F912F910F900FBE0F901F90189526E803
:1008F000230F0296A11DB11DD2CF1F920F920FB6EA
:100900000F9211242F933F934F935F936F937F9395
:100910008F939F93AF93BF93EF93FF938091B90011
:10092000887F803609F44AC0F0F5883209F4A7C000
:1009300018F5803109F49BC0B8F4882309F4F9C094
:10094000883009F494C0FF91EF91BF91AF919F91CE
:100950008F917F916F915F914F913F912F910F9068
:100960000FBE0F901F901895883109F488C080320F
:1009700051F78093DD0114C0803409F49DC040F428
:100980008033B9F38833F9F68093DD0185ECB0C08C
:10099000803509F485C0883509F496C0883499F605
:1009A0000E94FB03D0CF883909F48CC038F5883712
:1009B00029F050F4883611F0803729F683E08093CF
:1009C000DE011092DC0157C0883809F47BC0803901
:1009D00019F0803809F0B7CF8091DC01803208F03F
:1009E00071C0E091DC0181E08E0F8093DC01809189
:1009F000BB00F0E0E454FE4F80833DC0803B39F003
:100A0000E0F4803A09F479C0883A09F09CCF84E098
:100A10008093DE011092BB011092BA01E0910F02A7
:100A2000F091100209958091BA0181110FC081E007
:100A30008093BA0110929A0109C0803C09F4A6CFB4
:100A4000883C09F4A3CF883B09F07DCFE091BB013E
:100A500081E08E0F8093BB01F0E0E656FE4F80816F
:100A60008093BB009091BB018091BA0129C0809115
:100A700003028093BB0085EC8093BC0064CF90910F
:100A8000020280910102981758F5E091020281E07C
:100A90008E0F80930202F0E0EF51FE4F8081E9CF8C
:100AA000E091020281E08E0F809302028091BB00F0
:100AB000F0E0EF51FE4F808390910202809101029D
:100AC0009817C8F285E8D8CFE091020281E08E0F36
:100AD000809302028091BB00F0E0EF51FE4F8083D3
:100AE0008091E00181115CCF81E08093DF0184EA95
:100AF0008093BC001092DE0126CF85EC8093BC0071
:100B00001092DE018091DC01803230F4E091DC0152
:100B1000F0E0E454FE4F10826091DC0170E0E0915F
:100B20000D02F0910E028CEB91E009951092DC0120
:100B30000ACF1092DD0134CFA7E1B2E013961C92E8
:100B40001E92129748EE53E060E070E014964D93C9
:100B50005D936D937C9317978CE291E011969C9333
:100B60008E93E3E2F2E0138212828EE391E09183AE
:100B70008083108A118A128A138A8EE3828780E624
:100B8000838780E1848782E08587B787A687089579
:100B9000CF93DF9300D01F92CDB7DEB7789484B5A2
:100BA000826084BD84B5816084BD85B5826085BD69
:100BB00085B5816085BD80916E00816080936E00F7
:100BC00010928100809181008260809381008091E9
:100BD000810081608093810080918000816080939A
:100BE00080008091B10084608093B1008091B0005A
:100BF00081608093B00080917A00846080937A0055
:100C000080917A00826080937A0080917A0081607E
:100C100080937A0080917A00806880937A001092A5
:100C2000C10010921202109211021092140210923E
:100C300013020E947C0182E890E09093100280935E
:100C40000F0283E890E090930E0280930D02809152
:100C50002E02803609F00CC184E08093330283E0D9
:100C60008093340282E080933502809336021092A2
:100C7000270280913002823018F098E0909327028A
:100C800080932B0210922C0262E370E080E090E0EF
:100C90000E9422018091270280620E94940365E0F5
:100CA00070E080E090E00E94220180912702806243
:100CB0000E94940365E070E080E090E00E942201D1
:100CC0008091270280620E94940384E0809328022E
:100CD0008CE00E94940381E00E9494038BE39FE1E7
:100CE0000197F1F782E08093290286E00E94940345
:100CF00080912E02803609F0DCC060E080E00E9426
:100D000028036FEF88E00E94280360E281E00E94E0
:100D100028038091330290912E02903309F0ECC0A9
:100D200060EC0E94280360EC809134020E9428034A
:100D300060EC809135020E94280360E271E080E05F
:100D40000E94AC0368E171E081E00E94AC0360E1C5
:100D500071E082E00E94AC0368E071E083E00E94F1
:100D6000AC0360E071E084E00E94AC031B8280E889
:100D700089838A8342E0BE016F5F7F4F83E292E006
:100D80000E94540342E050E066E471E083E292E0A6
:100D90000E94840060E083E292E00E94DF034AE068
:100DA00050E069E471E083E292E00E94840061E037
:100DB00083E292E00E94DF0380E4B82E10E804ECA6
:100DC00044244A9493E0592E612C712C20E0822E09
:100DD00020E0922EB0927C0080917A008064809313
:100DE0007A0080917A0086FDFCCFE0907800F09048
:100DF00079001B8219830A8342E0BE016F5F7F4F37
:100E000083E292E00E94540363E083E292E00E9456
:100E1000DF0320E233E0D7010E94E107A301920142
:100E20000E94910769017A0188ECC80ED11CE11C6F
:100E3000F11CC701B6010E9422011B8219830A839B
:100E400042E0BE016F5F7F4F83E292E00E94540355
:100E500064E083E292E00E94DF03C701B6010E94D2
:100E600022018114910409F4B5CF0E940000B2CF91
:100E7000803341F486E08093330287E0809334022C
:100E800088E0F1CE8B3641F486E08093330285E032
:100E90008093340284E0E7CE8D3209F0E8CE81E021
:100EA0008093330292E09093340293E09093350262
:100EB000DCCE803359F460E081E00E9428036FEFBC
:100EC00082E00E94280365E184E021CF8B3609F09F
:100ED00020CF60E08FE20E94280360E280E00E9461
:100EE000280360E081E00E94280361E082E00E9424
:100EF000280364E083E00BCF6FEF0E9428036FEFBD
:100F0000809134020E9428036FEF809135020E9485
:100F1000280380912E028B3609F00FCF6FEF87E008
:100F20000ACF052E97FB1EF400940E94A80757FDD8
:100F300007D00E94B00707FC03D04EF40C94A8071A
:100F400050954095309521953F4F4F4F5F4F0895F5
:100F500090958095709561957F4F8F4F9F4F089525
:100F6000A1E21A2EAA1BBB1BFD010DC0AA1FBB1FAD
:100F7000EE1FFF1FA217B307E407F50720F0A21B1F
:100F8000B30BE40BF50B661F771F881F991F1A948C
:100F900069F760957095809590959B01AC01BD01B6
:100FA000CF010895A29FB001B39FC001A39F700D10
:100FB000811D1124911DB29F700D811D1124911D61
:100FC00008950E94D207B7FF0895821B930B0895DE
:100FD000EE0FFF1F0590F491E02D0994F894FFCFD8
:100FE000040A04150E04040A040A04040E15040A73
:100FF00000000A0000000E1100000A0000110E009F
:10100000000A1F1F1F0E0400000000001202E5016D
:10101000F803BB01DE01CB01BC0100000000DF03CF
:101020008400F803F7034920002041726475696E5B
:041030006F2120000C
:00000001FF
