:100000000C9458000C9480000C9480000C94800098
:100010000C9480000C9480000C9480000C94800060
:100020000C9480000C9480000C9480000C94800050
:100030000C9480000C9480000C9480000C94800040
:100040000C9465080C9480000C9433080C940D08F3
:100050000C9480000C9480000C9480000C94800020
:100060000C94AF080C9480000000000025002800CC
:100070002B00040404040404040402020202020229
:10008000030303030303010204081020408001025C
:1000900004081020010204081020000000080002DB
:1000A0000100000304070000000000000000CE096A
:1000B00011241FBECFEFD8E0DEBFCDBF11E0A0E01E
:1000C000B1E0E0E4F4E202C005900D92A43AB10779
:1000D000D9F723E0A4EAB1E001C01D92AB37B20723
:1000E000E1F710E0C8E5D0E004C02197FE010E94CE
:1000F0001812C735D107C9F70E94310A0C941E1295
:100100000C9400008091410290914202891B990B4E
:10011000089508950895AF92BF92CF92DF92EF9223
:10012000FF920F931F93CF93DF936C017B018B01A1
:10013000040F151FEB015E01AE18BF08C017D107F1
:1001400059F06991D601ED91FC910190F081E02D7B
:10015000C6010995892B79F7C501DF91CF911F91D0
:100160000F91FF90EF90DF90CF90BF90AF900895E8
:10017000FC01538D448D252F30E0842F90E0821BAD
:10018000930B541710F0CF96089501970895FC0132
:10019000918D828D981761F0A28DAE0FBF2FB11D8A
:1001A0005D968C91928D9F5F9F73928F90E00895E2
:1001B0008FEF9FEF0895FC01918D828D981731F09C
:1001C000828DE80FF11D858D90E008958FEF9FEFF0
:1001D0000895FC01918D228D892F90E0805C9F4FC6
:1001E000821B91098F739927089587E692E00E94F8
:1001F000E90021E0892B09F420E0822F089580E0B6
:1002000090E0892B29F00E94F50081110C940000E8
:100210000895FC01A48DA80FB92FB11DA35ABF4F9B
:100220002C91848D90E001968F739927848FA689F5
:10023000B7892C93A089B1898C91837080648C9349
:10024000938D848D981306C00288F389E02D8081F8
:100250008F7D80830895EF92FF920F931F93CF932A
:10026000DF93EC0181E0888F9B8D8C8D98131AC0F1
:10027000E889F989808185FF15C09FB7F894EE89D8
:10028000FF896083E889F989808183708064808335
:100290009FBF81E090E0DF91CF911F910F91FF9080
:1002A000EF900895F62E0B8D10E00F5F1F4F0F7328
:1002B0001127E02E8C8D8E110CC00FB607FCFACFE3
:1002C000E889F989808185FFF5CFCE010E94090177
:1002D000F1CFEB8DEC0FFD2FF11DE35AFF4FF082B4
:1002E0009FB7F8940B8FEA89FB8980818062CFCF1A
:1002F000CF93DF93EC01888D8823B9F0AA89BB895D
:10030000E889F9898C9185FD03C0808186FD0DC047
:100310000FB607FCF7CF8C9185FFF2CF808185FF68
:10032000EDCFCE010E940901E9CFDF91CF91089571
:1003300090E0FC01E656FF4F2491FC01EA57FF4F85
:100340003491FC01EE58FF4FE491EE23C9F02223D3
:1003500039F0233001F1A8F4213019F1223029F1CC
:10036000F0E0EE0FFF1FE859FF4FA591B4918FB752
:10037000F894EC91611126C030953E233C938FBFD9
:1003800008952730A9F02830C9F0243049F780912A
:1003900080008F7D03C0809180008F7780938000E4
:1003A000DFCF84B58F7784BDDBCF84B58F7DFBCF66
:1003B0008091B0008F778093B000D2CF8091B00051
:1003C0008F7DF9CF3E2BDACF3FB7F89480910D02A5
:1003D00090910E02A0910F02B091100226B5A89B39
:1003E00005C02F3F19F00196A11DB11D3FBFBA2FC7
:1003F000A92F982F8827BC01CD01620F711D811D87
:10040000911D42E0660F771F881F991F4A95D1F70B
:1004100008958F929F92AF92BF92CF92DF92EF9208
:10042000FF926B017C010E94E4014B015C01C1144D
:10043000D104E104F104B9F00E94E40168197909DA
:100440008A099B09683E73408105910580F321E08C
:10045000C21AD108E108F10888EE880E83E0981EE0
:10046000A11CB11CE4CFFF90EF90DF90CF90BF9024
:10047000AF909F908F90089508952091E501260FE9
:100480003327331F21323105ECF420913B02FC016C
:1004900090E080E0243069F082E00895A091E501C9
:1004A0002191AC014B535E4FA40FB52FB11D2C937E
:1004B0000196861798F38091E501680F6093E50136
:1004C00080E0089581E0089510923B0281E08093DE
:1004D0003A021092350261E082E10E94980161E0E7
:1004E00083E10E949801E9EBF0E080818E7F8083B8
:1004F00080818D7F808388E48093B80085E4809339
:10050000BC000895109242021092410210926402BF
:10051000109263020E94640289E890E090931402B2
:10052000809313028AE890E0909312028093110264
:100530000895CF93DF9391E09093C4018823B9F09D
:10054000C091B800D091BA008091BC008A7B8093A2
:10055000BC0060E082E10E94980160E083E10E94BB
:1005600098010E946402D093BA00C093B800DF9152
:10057000CF9108950895E091420280914102E817D9
:1005800030F4F0E0ED5BFD4F808190E008958FEF57
:100590009FEF089590914202809141022FEF3FEF2B
:1005A000981748F4E92FF0E0ED5BFD4F208130E033
:1005B0009F5F90934202C9010895CF92DF92EF921C
:1005C000FF920F931F93CF93DF937C01CB018A019E
:1005D00020916602222389F0EB016B01C40ED51E27
:1005E000CC15DD0569F06991D701ED91FC91019081
:1005F000F081E02DC7010995F3CF642F0E943D02E1
:10060000C801DF91CF911F910F91FF90EF90DF9084
:10061000CF900895CF93DF931F92CDB7DEB7698354
:10062000209166022223F9F020916302203258F0D3
:1006300021E030E0FC013383228390E080E00F90E2
:10064000DF91CF91089580916402E82FF0E0EC559E
:10065000FE4F998190838F5F809364028093630241
:1006600081E090E0ECCF61E0CE0101960E943D0276
:10067000F7CFCF92DF92EF92FF920F931F93CF931A
:10068000DF93D091630281E0D13208F09CC0C09129
:1006900065020E94E4016B017C0180913B028111A3
:1006A0006CC082E080933B0281E080933A028FEF3E
:1006B0008093390210923802D0933702A4EAB1E055
:1006C000E5E1F2E080E0D8138DC01092360280910F
:1006D0003602CC0FC82BC093360280913502813090
:1006E00009F084C0109235020E94E4016B017C0184
:1006F000809136028093BB0080913D0290913E0232
:10070000A0913F02B0914002892B8A2B8B2BA1F044
:100710000E94E40100913D0210913E0220913F02AF
:10072000309140026C197D098E099F090617170741
:100730002807390708F442C08091BC0083FDD8CF58
:1007400085EC8093BC000E94E4016B017C018091E8
:100750003B02823009F44CC0809139028F3F09F48A
:1007600069C080913902803209F466C080913902F3
:10077000803309F463C084E026C080913D029091EB
:100780003E02A0913F02B0914002892B8A2B8B2B15
:1007900009F483CF0E94E40100913D0210913E02D2
:1007A00020913F02309140026C197D098E099F090A
:1007B000061717072807390708F06FCF80913C020A
:1007C0000E94990285E010926402109263021092D6
:1007D0006602DF91CF911F910F91FF90EF90DF9014
:1007E000CF9008959D9191938F5F6DCF85EEA9CFA6
:1007F00080913D0290913E02A0913F02B091400253
:10080000892B8A2B8B2B09F4A2CF0E94E401009143
:100810003D0210913E0220913F02309140026C193E
:100820007D098E099F09061717072807390708F061
:100830008ECFC4CF80E0C7CF82E0C5CF83E0C3CFE7
:10084000EF92FF920F931F93CF93DF938C017B0165
:10085000DC011A968C911A9791E09093660280932E
:10086000650210926402109263021E968D919C9113
:10087000DC01ED91FC910190F081E02DDB016C91A8
:100880000995CBE8D1E0CE010197F1F7F801868513
:100890009785DC01ED91FC910190F081E02DD7016D
:1008A00011966C9109952197F1F7F8018685978546
:1008B000DF91CF911F910F91FF90EF900C9439032E
:1008C000CF93DF9300D01F92CDB7DEB71B8290E8A5
:1008D00099838A83BE016F5F7F4F8CE193E00E9412
:1008E00020040F900F900F90DF91CF910895CF9338
:1008F000DF9300D01F92CDB7DEB71B8220E429839F
:100900006A83BE016F5F7F4F0E94200481E090E008
:100910000F900F900F90DF91CF9108951F93CF9379
:10092000DF93162FCCE1D3E0AE85BF859B8521E018
:100930002093660290936502109264021092630203
:10094000ED91FC9111970190F081E02D682FCD0180
:1009500009958E859F85DC01ED91FC910190F081D8
:10096000E02D612F09958E859F85DF91CF911F9195
:100970000C943903FC01248131E03093660220930A
:10098000650210926402109263028385682B80E1F5
:1009900093E00E940A0380E193E00C94390390E015
:1009A00080E008954F925F926F927F928F929F9214
:1009B000AF92BF92EF92FF920F931F93CF93DF936B
:1009C0007C01D62F81E08093660287E780936502E1
:1009D0001092640210926302F701608180E193E05B
:1009E0000E940A0380E193E00E94390380937A0316
:1009F0008111E1C00D2F0D2E000C110B0E94E4019E
:100A00004B015C0180913B02811165C0CD2F81E0DB
:100A100080933B0280933A029FEF909339021092A9
:100A200038029D0F909337028093360280913602F0
:100A30008E6E8093360280913502813009F097C026
:100A4000109235020E94E4014B015C018091360254
:100A50008093BB0080913D0290913E02A0913F02A5
:100A6000B0914002892B8A2B8B2BA1F00E94E401CC
:100A700040903D0250903E0260903F0270904002D4
:100A8000681979098A099B09461657066806790686
:100A900008F442C08091BC0083FDD8CF85EC8093E0
:100AA000BC000E94E4014B015C0180913B0281305B
:100AB00009F45FC0809138028D1710F4C09138029C
:100AC000E5E1F2E0A3E4B2E080E08C1751F191910E
:100AD0009D938F5FFACF80913D0290913E02A0914D
:100AE0003F02B0914002892B8A2B8B2B09F48ACFCD
:100AF0000E94E40140903D0250903E0260903F020F
:100B000070904002681979098A099B0946165706B0
:100B10006806790608F076CF80913C020E9499021F
:100B2000C0E010924202C09341028C2F90E008175F
:100B30001907E9F7CE2D870180E193E00E94CA02F0
:100B4000F80181938F018E2F8C1B8D17ACF381E000
:100B5000DF91CF911F910F91FF90EF90BF90AF90D9
:100B60009F908F907F906F905F904F90089585EE4B
:100B700096CF80913D0290913E02A0913F02B091AC
:100B80004002892B8A2B8B2B09F48FCF0E94E40122
:100B900040903D0250903E0260903F0270904002B3
:100BA000681979098A099B09461657066806790665
:100BB00008F07BCFB1CF80E0CBCF0F931F93CF93C3
:100BC000DF9300D0CDB7DEB78B01898362E0CE0121
:100BD00001960E94D204882381F089819A81982706
:100BE00089279827F8019183808381E00F900F90E7
:100BF000DF91CF911F910F910895F801118210821A
:100C0000F5CF0F931F93CF93DF9300D0CDB7DEB70F
:100C10008B01898362E0CE0101960E94D204882371
:100C200081F089819A81982789279827F8019183F3
:100C3000808381E00F900F90DF91CF911F910F91F2
:100C40000895F80111821082F5CF0F931F93CF936F
:100C50008C01C62F0E94BA046C2F6460C8010E94E8
:100C6000BA046C2F6B7FC8010E94BA0483EC90E039
:100C70000197F1F7CF911F910F9108950F931F9353
:100C8000CF93DF938C01D62FC42F607F642B0E94FB
:100C9000250680E1D89FB00111246C2BC801DF919B
:100CA000CF911F910F910C942506CF93DF93CDB771
:100CB000DEB728970FB6F894DEBF0FBECDBF98E021
:100CC000E0E0F1E0DE01119601900D929A95E1F7D6
:100CD00090910C03981708F48FEF90E0880F991FFC
:100CE00021E030E02C0F3D1F820F931FFC0160813B
:100CF000606840E084E093E028960FB6F894DEBF89
:100D00000FBECDBFDF91CF910C943E0641E00E9413
:100D10003E0681E090E00895FB0101900020E9F794
:100D20003197AF01461B570BDC01ED91FC9102801E
:100D3000F381E02D09948F929F92AF92BF92EF9230
:100D4000FF920F931F93CF93DF93CDB7DEB7A19799
:100D50000FB6F894DEBF0FBECDBF7C01FA01CB0108
:100D600019A2223008F42AE08E010F5D1F4F822E57
:100D7000912CB12CA12CBF01A50194010E94F61168
:100D8000F901CA016A300CF5605DD8016E938D01DE
:100D9000232B242B252B79F790E080E0109721F06E
:100DA000BD01C7010E948C06A1960FB6F894DEBF64
:100DB0000FBECDBFDF91CF911F910F91FF90EF90AC
:100DC000BF90AF909F908F900895695CDECF2F9277
:100DD0003F924F925F926F927F928F929F92AF92CB
:100DE000BF92CF92DF92EF92FF921F93CF93DF9348
:100DF000EC016A017B01722EAB019601CB01B601B9
:100E00000E94F11164E471E0811126C0460157018E
:100E1000E894B7F82FEF3FEF4FE75FE7C501B40164
:100E20000E94F11181110CC02FEF3FEF4FE75FE7F8
:100E3000C501B4010E94271068E471E0181664F03F
:100E40002FEF3FEF4FE75FE4C701B6010E947F112C
:100E50001816B4F46CE471E0CE01DF91CF911F91CC
:100E6000FF90EF90DF90CF90BF90AF909F908F90CA
:100E70007F906F905F904F903F902F900C948C06D6
:100E80002FEF3FEF4FE75FECC701B6010E9427103D
:100E900087FDE0CF20E030E0A901C701B6010E9444
:100EA0002710312C212C87FF0DC0E881F98101909A
:100EB000F081E02D6DE2CE0109951C01F7FAF09466
:100EC000F7F8F09410E060E070E080E09FE37116C6
:100ED00041F020E030E040E251E40E942C101F5F1E
:100EE000F6CFA70196010E94BB0F2B013C010E9487
:100EF0009E104B015C012AE0BC01A401CE010E94BE
:100F00009B067C01E20CF31C1123E1F1C501B40145
:100F10000E94CD109B01AC01C301B2010E94BA0F27
:100F20004B015C01E881F9810190F081E02D6EE2D6
:100F3000CE010995E80EF91E115020F120E030E0B5
:100F400040E251E4C501B4010E9484112B013C012F
:100F50000E949E104B01B12CA12C2AE0B501A401E6
:100F6000CE010E949B06E80EF91EC501B4010E9445
:100F7000CD109B01AC01C301B2010E94BA0F4B011D
:100F80005C01DACFC701DF91CF911F91FF90EF9005
:100F9000DF90CF90BF90AF909F908F907F906F9099
:100FA0005F904F903F902F90089585ED8093BC0007
:100FB00080913D0290913E02A0913F02B09140028B
:100FC0000796A11DB11D23E0B695A7959795879526
:100FD0002A95D1F72091BC0024FD03C010923B025A
:100FE000089540913D0250913E0260913F02709100
:100FF0004002452B462B472B69F30097A105B1050D
:1010000041F02AE22A95F1F700C00197A109B10940
:10101000E1CF80913C020C9499021F920F920FB67F
:101020000F9211242F933F934F935F936F937F936E
:101030008F939F93AF93BF93EF93FF9387E692E0D5
:101040000E940901FF91EF91BF91AF919F918F9104
:101050007F916F915F914F913F912F910F900FBEB4
:101060000F901F9018951F920F920FB60F92112498
:101070002F938F939F93EF93FF93E0917702F091DB
:1010800078028081E0917D02F0917E0282FD1BC09A
:101090009081809180028F5F8F73209181028217EF
:1010A00041F0E0918002F0E0E959FD4F958F809387
:1010B0008002FF91EF919F918F912F910F900FBE22
:1010C0000F901F9018958081F4CF1F920F920FB64A
:1010D0000F9211242F933F938F939F93AF93BF93BE
:1010E0008091090290910A02A0910B02B0910C022A
:1010F0003091080223E0230F2D3758F50196A11DEA
:10110000B11D209308028093090290930A02A093D4
:101110000B02B0930C0280910D0290910E02A091EF
:101120000F02B09110020196A11DB11D80930D0216
:1011300090930E02A0930F02B0931002BF91AF9153
:101140009F918F913F912F910F900FBE0F901F9005
:10115000189526E8230F0296A11DB11DD2CF1F922C
:101160000F920FB60F9211242F933F934F935F93DB
:101170006F937F938F939F93AF93BF93EF93FF935F
:101180008091B900887F803609F44AC0F0F5883232
:1011900009F4A7C018F5803109F49BC0B8F488237E
:1011A00009F4F9C0883009F494C0FF91EF91BF9120
:1011B000AF919F918F917F916F915F914F913F91EF
:1011C0002F910F900FBE0F901F901895883109F442
:1011D00088C0803251F78093390214C0803409F4FA
:1011E0009DC040F48033B9F38833F9F68093390217
:1011F00085ECB0C0803509F485C0883509F496C007
:10120000883499F60E94D507D0CF883909F48CC06C
:1012100038F5883729F050F4883611F0803729F6F0
:1012200083E080933B021092070257C0883809F48C
:101230007BC0803919F0803809F0B7CF8091070260
:10124000803208F071C0E091070281E08E0F809338
:1012500007028091BB00F0E0E951FE4F80833DC062
:10126000803B39F0E0F4803A09F479C0883A09F01B
:101270009CCF84E080933B021092E6011092E5013E
:10128000E0911302F091140209958091E50181111A
:101290000FC081E08093E5011092C50109C0803C38
:1012A00009F4A6CF883C09F4A3CF883B09F07DCF91
:1012B000E091E60181E08E0F8093E601F0E0EB53D0
:1012C000FE4F80818093BB009091E6018091E50103
:1012D00029C0809136028093BB0085EC8093BC00CE
:1012E00064CF9091380280913702981758F5E091B9
:1012F000380281E08E0F80933802F0E0EB5EFD4F04
:101300008081E9CFE091380281E08E0F809338022E
:101310008091BB00F0E0EB5EFD4F8083909138023E
:10132000809137029817C8F285E8D8CFE09138024B
:1013300081E08E0F809338028091BB00F0E0EB5E7D
:10134000FD4F808380913A0281115CCF81E08093D0
:10135000350284EA8093BC0010923B0226CF85ECD4
:101360008093BC0010923B0280910702803230F4DF
:10137000E0910702F0E0E951FE4F10826091070210
:1013800070E0E0911102F091120287EE91E0099570
:10139000109207020ACF1092390234CFE7E6F2E04A
:1013A0001382128248EE53E060E070E0448355837C
:1013B000668377838CE091E09183808385EC90E075
:1013C0009587848784EC90E09787868780EC90E00F
:1013D000918B808B81EC90E0938B828B82EC90E000
:1013E000958B848B86EC90E0978B868B118E128E7A
:1013F000138E148EA0E1B3E013961C921E921297E6
:1014000014964D935D936D937C9317978EE191E0C5
:1014100011969C938E93ECE1F3E0138212828CE39D
:1014200091E091838083108A118A128A138A8EE355
:10143000828780E6838780E1848782E08587B7871B
:10144000A687E4E0F3E01382128280E391E09183C7
:1014500080838FE3848384E1818784E0828713869D
:101460000895CF93DF93CDB7DEB72F970FB6F894DB
:10147000DEBF0FBECDBF789484B5826084BD84B5D5
:10148000816084BD85B5826085BD85B5816085BD7F
:1014900080916E00816080936E0010928100809137
:1014A00081008260809381008091810081608093BF
:1014B0008100809180008160809380008091B100E4
:1014C00084608093B1008091B00081608093B0000F
:1014D00080917A00846080937A0080917A008260A3
:1014E00080937A0080917A00816080937A00809165
:1014F0007A00806880937A001092C1000E94820274
:1015000080912703803609F0DCC484E080932C03AB
:1015100083E080932D0382E080932E0380932F033A
:101520001092200380912903823018F098E0909364
:101530002003809324031092250362E370E080E08F
:1015400090E00E9409028091200380620E94600462
:1015500065E070E080E090E00E9409028091200345
:1015600080620E94600465E070E080E090E00E948C
:1015700009028091200380620E94600484E08093CD
:1015800021038CE00E94600481E00E9460048BE3F0
:101590009FE10197F1F782E08093220386E00E94A9
:1015A000600480912703803609F0ACC460E080E0DD
:1015B0000E948E046FEF88E00E948E0460E281E05A
:1015C0000E948E0480912C0390912703903309F0A0
:1015D000BCC460EC0E948E0460EC80912D030E94DC
:1015E0008E0460EC80912E030E948E040E94820281
:1015F0001092090380910E03823018F098E09093C6
:10160000090380930C0362E370E080E090E00E94A5
:10161000090260910F0384E093E00E94BA0468EE2F
:1016200073E080E090E00E94090260E384E093E0D0
:101630000E9425060BE416E4C8010197F1F760E368
:1016400084E093E00E942506C8010197F1F760E36A
:1016500084E093E00E94250683E592E00197F1F78C
:1016600060E284E093E00E942506609109036062D5
:1016700040E084E093E00E943E0684E080930A0309
:1016800040E06CE084E093E00E943E0640E061E0D0
:1016900084E093E00E943E060BE31FE1C80101973E
:1016A000F1F722E0F22EF0920B0340E066E084E0D6
:1016B00093E00E943E0640E062E084E093E00E94F6
:1016C0003E06C8010197F1F788E080930F0360E0C0
:1016D00084E093E00E94BA041B8280E889838A83B5
:1016E000BE016F5F7F4F8CE193E00E94200460E5B4
:1016F00071E08CE193E00E948C0680E00E94550628
:101700006BE571E084E093E00E948C06E091770243
:10171000F0917802F082E0917302F09174021082ED
:10172000E0917502F09176028FEC808310927F0237
:10173000E0917B02F0917C0286E08083E091790267
:10174000F0917A02808180618083E0917902F0914A
:101750007A02808188608083E0917902F0917A0238
:10176000808180688083E0917902F0917A028081A3
:101770008F7D80830E94820260E373E08AEA0E9488
:101780000106882309F472C162E373E08CEA0E94C7
:101790000106882309F46AC164E373E08EEA0E94BB
:1017A0000106882309F462C160E473E080EB0E94C3
:1017B000DD05882309F45AC162E473E082EB0E94DC
:1017C000DD05882309F452C164E473E084EB0E94D0
:1017D000DD05882309F44AC166E373E086EB0E94C5
:1017E0000106882309F442C168E373E088EB0E9494
:1017F0000106882309F43AC16AE373E08AEB0E9488
:101800000106882309F432C16CE373E08CEB0E947B
:101810000106882309F42AC16EE373E08EEB0E946F
:101820000106882309F422C16091340370913503C5
:10183000072E000C880B990B0E94CF1020E030E09F
:1018400040EA5BE30E9484112B013C01609140035C
:101850007091410390E080E00E94CD102FE632E1CC
:1018600043E053E30E9484116B017C0160913603D5
:1018700070913703072E000C880B990B0E94CF1034
:1018800020E030E048EC57E30E9484114B015C01FA
:10189000609142037091430390E080E00E94CD107C
:1018A0002DEC3CEC4CE454E30E948411609346031D
:1018B00070934703809348039093490360914403D6
:1018C0007091450390E080E00E94CD1060934A0340
:1018D00070934B0380934C0390934D0360913C03B2
:1018E00070913D03072E000C880B990B0E94CF10BE
:1018F0002AE037ED43EA5DE30E94841160934E03D2
:1019000070934F03809350039093510360913E0373
:1019100070913F03072E000C880B990B0E94CF108B
:1019200020E030E040E253E40E942C106093520328
:101930007093530380935403909355036091300345
:1019400070913103072E000C880B990B0E94CF1069
:1019500060935603709357038093580390935903F1
:101960006091320370913303072E000C880B990BA2
:101970000E94CF1020E030E040EA5CE30E94841136
:1019800060935A0370935B0380935C0390935D03B1
:101990006091380370913903072E000C880B990B66
:1019A0000E94CF1020E030E048E45AE30E94841106
:1019B00060935E0370935F03809360039093610371
:1019C00020E030E040E057E4C701B6010E948411F6
:1019D0006093620370936303809364039093650341
:1019E000A7019601C301B2010E94841160936603AE
:1019F000709367038093680390936903A501940132
:101A0000C701B6010E94841160936A0370936B034F
:101A100080936C0390936D038CEE91E5A7E1B0E4A5
:101A200080936E0390936F03A0937003B093710340
:101A300080E394E3AEE7BFE3809372039093730374
:101A4000A0937403B093750380E097E5A4E9B6E32F
:101A50008093760390937703A0937803B0937903F0
:101A600067E671E087E692E00E948C0684EF382EEC
:101A700011E096EF292E00E839822EE22A83109396
:101A8000660287E7809365021092640210926302F7
:101A900042E050E0BE016F5F7F4F80E193E00E9423
:101AA000DD0280E193E00E94390380937A03811183
:101AB000FBC168EE73E080E090E00E940902298299
:101AC00062E0CE0101960E94D204882309F4ECC1A1
:101AD00079809A819C83C0904603D0904703E09020
:101AE0004803F090490380904A0390904B03A090E4
:101AF0004C03B0904D0380914E0390914F03A09101
:101B00005003B091510388879987AA87BB8780913A
:101B1000520390915303A0915403B09155038C87C5
:101B20009D87AE87BF8739823A821093660297E716
:101B300090936502109264021092630242E050E0BA
:101B4000BE016F5F7F4F80E193E00E94DD0280E184
:101B500093E00E94390380937A038111A5C16AE161
:101B600070E080E090E00E940902298263E0CE01EB
:101B700001960E94D204882309F496C1672D70E073
:101B800090E080E00E94CF1020E030E040E853E495
:101B90000E9484112B013C01AC816A2F70E090E01F
:101BA00080E00E94CF109B01AC01C301B2010E94F2
:101BB000BB0FA50194010E94BA0FA70196010E94D4
:101BC00084116B017C012C853D854E855F850E94CB
:101BD000BB0F9B01AC01688579858A859B850E9436
:101BE0002C10A70196010E94BB0F6C837D838E830E
:101BF0009F8320E030E048EC51E40E94BA0F6B0173
:101C00007C01AC019B010E9484114B015C01698144
:101C100070E090E080E00E94CF1020E030E040E8EB
:101C200053E40E9484112B013C016A8170E090E032
:101C300080E00E94CF109B01AC01C301B2010E9461
:101C4000BB0F2B013C016B8170E090E080E00E94B3
:101C5000CF1020E030E040E85BE30E9484119B015C
:101C6000AC01C301B2010E94BB0F688779878A87E4
:101C70009B8720915E0330915F03409160035091F8
:101C80006103C501B4010E9484112B013C01209124
:101C90005A0330915B0340915C0350915D03C7018F
:101CA000B6010E9484119B01AC01C301B2010E94E4
:101CB000BB0F209156033091570340915803509128
:101CC00059030E94BB0F9B01AC01688579858A8509
:101CD0009B850E94BA0F2B013C0120916A03309131
:101CE0006B0340916C0350916D03C501B4010E94D8
:101CF00084114B015C012091660330916703409190
:101D0000680350916903C701B6010E9484119B01C9
:101D1000AC01C501B4010E94BB0F20916203309158
:101D2000630340916403509165030E94BB0F9B01C4
:101D3000AC01C301B2010E942C106B017C01AC010B
:101D40009B010E948411209176033091770340918A
:101D50007803509179030E9484114B015C0120911A
:101D60007203309173034091740350917503C7015E
:101D7000B6010E9484119B01AC01C501B4010E940F
:101D8000BB0F20916E0330916F034091700350910F
:101D900071030E94BB0F6B017C016BE771E087E66A
:101DA00092E00E948C0622E0B701A60187E692E04D
:101DB0000E94E70666E871E087E692E00E948C06E2
:101DC00060E971E087E692E00E948C0663E971E0C9
:101DD00087E692E00E948C0622E04C815D816E8154
:101DE0007F8187E692E00E94E7066AE971E087E674
:101DF00092E00E948C0660E971E087E692E00E9422
:101E00008C061B8209830A83BE016F5F7F4F8CE1C2
:101E100093E00E9420046BE771E08CE193E00E9464
:101E20008C0622E0B701A6018CE193E00E94E70650
:101E30001B820983B0ECBA83BE016F5F7F4F8CE1D8
:101E400093E00E94200463E971E08CE193E00E943A
:101E50008C0622E04C815D816E817F818CE193E074
:101E60000E94E70680E00E9455066BE771E084E07F
:101E700093E00E948C0622E0B701A60184E093E083
:101E80000E94E70681E00E94550663E971E084E064
:101E900093E00E948C0622E04C815D816E817F81FF
:101EA00084E093E00E94E70680E090E0892B09F44B
:101EB000E3CD0E94F500882309F4DECD0E940000E6
:101EC000DBCD803341F486E080932C0387E0809360
:101ED0002D0388E021CB8B3641F486E080932C03E0
:101EE00085E080932D0384E017CB8D3209F018CB69
:101EF00081E080932C0392E090932D0393E09093E4
:101F00002E030CCB803359F460E081E00E948E04F4
:101F10006FEF82E00E948E0465E184E051CB8B3646
:101F200009F050CB60E08FE20E948E0460E280E016
:101F30000E948E0460E081E00E948E0461E082E0F5
:101F40000E948E0464E083E03BCB6FEF0E948E041E
:101F50006FEF80912D030E948E046FEF80912E030E
:101F60000E948E04809127038B3609F03FCB6FEFE0
:101F700087E03ACB5058BB27AA270E94D20F0C9477
:101F800045110E94371138F00E943E1120F039F4BB
:101F90009F3F19F426F40C9434110EF4E095E7FBFE
:101FA0000C942E11E92F0E94561158F3BA176207AC
:101FB00073078407950720F079F4A6F50C9478113F
:101FC0000EF4E0950B2EBA2FA02D0B01B901900154
:101FD0000C01CA01A0011124FF27591B99F0593F98
:101FE00050F4503E68F11A16F040A22F232F342FE0
:101FF0004427585FF3CF469537952795A795F0402E
:102000005395C9F77EF41F16BA0B620B730B840B42
:10201000BAF09150A1F0FF0FBB1F661F771F881FFA
:10202000C2F70EC0BA0F621F731F841F48F4879552
:1020300077956795B795F7959E3F08F0B0CF939544
:10204000880F08F09927EE0F9795879508950E94BD
:102050000A1108F481E008950E9440100C94451183
:102060000E943E1158F00E94371140F029F45F3F62
:1020700029F00C942E1151110C9479110C943411F7
:102080000E94561168F39923B1F3552391F3951BE0
:10209000550BBB27AA2762177307840738F09F5F89
:1020A0005F4F220F331F441FAA1FA9F335D00E2EF6
:1020B0003AF0E0E832D091505040E695001CCAF763
:1020C0002BD0FE2F29D0660F771F881FBB1F261726
:1020D00037074807AB07B0E809F0BB0B802DBF01FD
:1020E000FF2793585F4F3AF09E3F510578F00C94CC
:1020F0002E110C9479115F3FE4F3983ED4F386954A
:1021000077956795B795F7959F5FC9F7880F911DEC
:102110009695879597F90895E1E0660F771F881FD8
:10212000BB1F621773078407BA0720F0621B730B8B
:10213000840BBA0BEE1F88F7E09508950E945E119C
:1021400088F09F5798F0B92F9927B751B0F0E1F078
:10215000660F771F881F991F1AF0BA95C9F714C028
:10216000B13091F00E947811B1E008950C9478118B
:10217000672F782F8827B85F39F0B93FCCF3869561
:1021800077956795B395D9F73EF4909580957095BE
:1021900061957F4F8F4F9F4F0895E89409C097FB3B
:1021A0003EF490958095709561957F4F8F4F9F4F2E
:1021B0009923A9F0F92F96E9BB279395F695879572
:1021C00077956795B795F111F8CFFAF4BB0F11F435
:1021D00060FF1BC06F5F7F4F8F4F9F4F16C08823DC
:1021E00011F096E911C0772321F09EE8872F762F12
:1021F00005C0662371F096E8862F70E060E02AF053
:102200009A95660F771F881FDAF7880F969587953E
:1022100097F90895990F0008550FAA0BE0E8FEEF13
:1022200016161706E807F907C0F012161306E4079A
:10223000F50798F0621B730B840B950B39F40A2693
:1022400061F0232B242B252B21F408950A2609F471
:10225000A140A6958FEF811D811D089597F99F6775
:1022600080E870E060E008959FEF80EC089500241E
:102270000A941616170618060906089500240A94EB
:1022800012161306140605060895092E0394000C71
:1022900011F4882352F0BB0F40F4BF2B11F460FF00
:1022A00004C06F5F7F4F8F4F9F4F089557FD905829
:1022B000440F551F59F05F3F71F04795880F97FB0A
:1022C000991F61F09F3F79F08795089512161306C4
:1022D0001406551FF2CF4695F1DF08C016161706F3
:1022E0001806991FF1CF8695710561050894089528
:1022F000E894BB2766277727CB0197F908950E94BA
:102300000A1108F48FEF08950E9497110C9445115B
:102310000E94371138F00E943E1120F0952311F0F1
:102320000C942E110C94341111240C9479110E94E8
:10233000561170F3959FC1F3950F50E0551F629FA2
:10234000F001729FBB27F00DB11D639FAA27F00D0E
:10235000B11DAA1F649F6627B00DA11D661F829F35
:102360002227B00DA11D621F739FB00DA11D621F1A
:10237000839FA00D611D221F749F3327A00D611D37
:10238000231F849F600D211D822F762F6A2F112419
:102390009F5750409AF0F1F088234AF0EE0FFF1F4C
:1023A000BB1F661F771F881F91505040A9F79E3FA3
:1023B000510580F00C942E110C9479115F3FE4F3D9
:1023C000983ED4F3869577956795B795F795E795F9
:1023D0009F5FC1F7FE2B880F911D9695879597F902
:1023E00008950E940A11880B990B0895A1E21A2EF4
:1023F000AA1BBB1BFD010DC0AA1FBB1FEE1FFF1FA9
:10240000A217B307E407F50720F0A21BB30BE40BF8
:10241000F50B661F771F881F991F1A9469F760953F
:102420007095809590959B01AC01BD01CF010895F9
:10243000EE0FFF1F0590F491E02D0994F894FFCF63
:102440000000400014005400000000002B018B002D
:10245000B8007801E900C700DB00000000000A03B3
:10246000DD02CF04BA028200CA02BB0200000000F3
:1024700086068B00CF043C020000000077048B002E
:10248000CF043C026E616E00696E66006F76660076
:102490002041726475696E6F21200020417264755D
:1024A000696E6F32212000424D5031383020696E04
:1024B000697469616C69617A6564005072657373EF
:1024C0007572653A200020685F50617363616C002B
:1024D0000D0A0054656D703A2000206465677265CE
:0424E000652D430023
:00000001FF
