:100000000C9458000C9480000C9480000C94800098
:100010000C9480000C9480000C9480000C94800060
:100020000C9480000C9480000C9480000C94800050
:100030000C9480000C9480000C9480000C94800040
:100040000C9423070C9480000C94F1060C94CB06BE
:100050000C9480000C9480000C9480000C94800020
:100060000C946D070C94800000000000250028000F
:100070002B00040404040404040402020202020229
:10008000030303030303010204081020408001025C
:1000900004081020010204081020000000080002DB
:1000A00001000003040700000000000000008C08AD
:1000B00011241FBECFEFD8E0DEBFCDBF11E0A0E01E
:1000C000B1E0EEEFFDE102C005900D92AE36B10752
:1000D000D9F723E0AEE6B1E001C01D92A532B20728
:1000E000E1F710E0C8E5D0E004C02197FE010E94CE
:1000F000F70EC735D107C9F70E94C5080C94FD0E4D
:100100000C9400008091BF019091C001891B990B54
:10011000089508950895AF92BF92CF92DF92EF9223
:10012000FF920F931F93CF93DF936C017B018B01A1
:10013000040F151FEB015E01AE18BF08C017D107F1
:1001400059F06991D601ED91FC910190F081E02D7B
:10015000C6010995892B79F7C501DF91CF911F91D0
:100160000F91FF90EF90DF90CF90BF90AF900895E8
:10017000FC01538D448D252F30E0842F90E0821BAD
:10018000930B541710F0CF96089501970895FC0132
:10019000918D828D981761F0A28DAE0FBF2FB11D8A
:1001A0005D968C91928D9F5F9F73928F90E00895E2
:1001B0008FEF9FEF0895FC01918D828D981731F09C
:1001C000828DE80FF11D858D90E008958FEF9FEFF0
:1001D0000895FC01918D228D892F90E0805C9F4FC6
:1001E000821B91098F739927089581E392E00E9401
:1001F000E90021E0892B09F420E0822F089580E0B6
:1002000090E0892B29F00E94F50081110C940000E8
:100210000895FC01A48DA80FB92FB11DA35ABF4F9B
:100220002C91848D90E001968F739927848FA689F5
:10023000B7892C93A089B1898C91837080648C9349
:10024000938D848D981306C00288F389E02D8081F8
:100250008F7D80830895EF92FF920F931F93CF932A
:10026000DF93EC0181E0888F9B8D8C8D98131AC0F1
:10027000E889F989808185FF15C09FB7F894EE89D8
:10028000FF896083E889F989808183708064808335
:100290009FBF81E090E0DF91CF911F910F91FF9080
:1002A000EF900895F62E0B8D10E00F5F1F4F0F7328
:1002B0001127E02E8C8D8E110CC00FB607FCFACFE3
:1002C000E889F989808185FFF5CFCE010E94090177
:1002D000F1CFEB8DEC0FFD2FF11DE35AFF4FF082B4
:1002E0009FB7F8940B8FEA89FB8980818062CFCF1A
:1002F000CF93DF93EC01888D8823B9F0AA89BB895D
:10030000E889F9898C9185FD03C0808186FD0DC047
:100310000FB607FCF7CF8C9185FFF2CF808185FF68
:10032000EDCFCE010E940901E9CFDF91CF91089571
:1003300090E0FC01E656FF4F2491FC01EA57FF4F85
:100340003491FC01EE58FF4FE491EE23C9F02223D3
:1003500039F0233001F1A8F4213019F1223029F1CC
:10036000F0E0EE0FFF1FE859FF4FA591B4918FB752
:10037000F894EC91611126C030953E233C938FBFD9
:1003800008952730A9F02830C9F0243049F780912A
:1003900080008F7D03C0809180008F7780938000E4
:1003A000DFCF84B58F7784BDDBCF84B58F7DFBCF66
:1003B0008091B0008F778093B000D2CF8091B00051
:1003C0008F7DF9CF3E2BDACF3FB7F8948091B701FC
:1003D0009091B801A091B901B091BA0126B5A89B3E
:1003E00005C02F3F19F00196A11DB11D3FBFBA2FC7
:1003F000A92F982F8827BC01CD01620F711D811D87
:10040000911D42E0660F771F881F991F4A95D1F70B
:1004100008958F929F92AF92BF92CF92DF92EF9208
:10042000FF926B017C010E94E4014B015C01C1144D
:10043000D104E104F104B9F00E94E40168197909DA
:100440008A099B09683E73408105910580F321E08C
:10045000C21AD108E108F10888EE880E83E0981EE0
:10046000A11CB11CE4CFFF90EF90DF90CF90BF9024
:10047000AF909F908F90089520918F01260F332782
:10048000331F21323105ECF420910702FC0190E08A
:1004900080E0243069F082E00895A0918F012191DD
:1004A000AC0141595E4FA40FB52FB11D2C9301969D
:1004B000861798F380918F01680F60938F0180E019
:1004C000089581E008951092070281E0809306026A
:1004D0001092E10161E082E10E94980161E083E114
:1004E0000E949801E9EBF0E080818E7F808380811B
:1004F0008D7F808388E48093B80085E48093BC007E
:100500000895CF93DF9391E090936E018823B9F023
:10051000C091B800D091BA008091BC008A7B8093D2
:10052000BC0060E082E10E94980160E083E10E94EB
:1005300098010E946302D093BA00C093B800DF9183
:10054000CF9108958F929F92AF92BF92CF92DF92F8
:10055000EF92FF920F931F93CF93DF93D0913002CE
:10056000D13208F0D7C0182FC0912F020E94E401A9
:100570006B017C018091070281116BC082E0809346
:100580000702109306028FEF809305021092040277
:10059000D0930302AFE0B2E0E3EEF1E080E0D813E5
:1005A00091C01092E2018091E201CC0FC82BC09360
:1005B000E2018091E101813009F088C01092E101EF
:1005C0000E94E4016B017C018091E2018093BB00F9
:1005D0008091090290910A02A0910B02B0910C0245
:1005E000892B8A2B8B2BA1F00E94E4010091090238
:1005F00010910A0220910B0230910C026C197D09B6
:100600008E099F09061717072807390708F442C003
:100610008091BC0083FDD8CF85EC8093BC000E9404
:10062000E4016B017C0180910702823009F450C023
:10063000809105028F3F09F46FC0809105028032DE
:1006400009F46CC080910502803309F469C084E02C
:1006500026C08091090290910A02A0910B02B091EC
:100660000C02892B8A2B8B2B09F484CF0E94E40186
:100670008090090290900A02A0900B02B0900C02A8
:100680006C197D098E099F0986169706A806B9067A
:1006900008F070CF809108020E94810285E01092DC
:1006A0000E021092300210920D02DF91CF911F9135
:1006B0000F91FF90EF90DF90CF90BF90AF909F9001
:1006C0008F9008959D9191938F5F69CF85EEA5CF0F
:1006D0008091090290910A02A0910B02B0910C0244
:1006E000892B8A2B8B2B09F49ECF0E94E401009169
:1006F000090210910A0220910B0230910C026C1930
:100700007D098E099F09061717072807390708F082
:100710008ACFC0CF81E0C3CF80E0C1CF82E0BFCF1E
:1007200083E0BDCF0895E091C0018091BF01E8173B
:1007300030F4F0E0EF53FE4F808190E008958FEFAA
:100740009FEF08959091C0018091BF012FEF3FEF7F
:10075000981748F4E92FF0E0EF53FE4F208130E086
:100760009F5F9093C001C9010895CF92DF92EF92ED
:10077000FF920F931F93CF93DF937C01CB018A01EC
:1007800020910D02222389F0EB016B01C40ED51ECE
:10079000CC15DD0569F06991D701ED91FC910190CF
:1007A000F081E02DC7010995F3CF642F0E943C0230
:1007B000C801DF91CF911F910F91FF90EF90DF90D3
:1007C000CF900895CF93DF931F92CDB7DEB76983A3
:1007D00020910D022223F9F020913002203258F0AE
:1007E00021E030E0FC013383228390E080E00F9031
:1007F000DF91CF91089580910E02E82FF0E0E15F44
:10080000FD4F998190838F5F80930E028093300219
:1008100081E090E0ECCF61E0CE0101960E943C02C5
:10082000F7CF90E080E00895FC0101900020E9F707
:100830003197AF01481B590BBC0181E392E00C9446
:100840008B008F929F92AF92BF920F931F93CF9383
:10085000DF93CDB7DEB7A1970FB6F894DEBF0FBE1A
:10086000CDBF19A2423008F44AE08E010F5D1F4F40
:10087000842E912CB12CA12CA50194010E94D50E9F
:10088000E62FB901CA01EA30F4F4E05DD801EE9335
:100890008D01232B242B252B79F790E080E01097F6
:1008A00019F0CD010E941404A1960FB6F894DEBF92
:1008B0000FBECDBFDF91CF911F910F91BF90AF9031
:1008C0009F908F900895E95CE1CF4F925F926F9275
:1008D0007F928F929F92AF92BF92EF92FF920F936F
:1008E0001F93CF93DF937C01D62F81E080930D027D
:1008F00087E780932F0210920E0210923002F701C8
:1009000060818EEC92E00E94E20381E00E94A202EC
:10091000809324038111E1C00D2F0D2E000C110BCB
:100920000E94E4014B015C0180910702811165C0C6
:10093000CD2F81E080930702809306029FEF909372
:100940000502109204029D0F909303028093E2012E
:100950008091E2018E6E8093E2018091E10181300D
:1009600009F097C01092E1010E94E4014B015C0183
:100970008091E2018093BB008091090290910A026C
:10098000A0910B02B0910C02892B8A2B8B2BA1F02A
:100990000E94E4014090090250900A0260900B020C
:1009A00070900C02681979098A099B094616570646
:1009B0006806790608F442C08091BC0083FDD8CF58
:1009C00085EC8093BC000E94E4014B015C018091A6
:1009D0000702813009F45FC0809104028D1710F482
:1009E000C0910402E3EEF1E0A1ECB1E080E08C17ED
:1009F00051F191919D938F5FFACF8091090290916F
:100A00000A02A0910B02B0910C02892B8A2B8B2B2E
:100A100009F48ACF0E94E4014090090250900A0232
:100A200060900B0270900C02681979098A099B0981
:100A3000461657066806790608F076CF80910802B8
:100A40000E948102C0E01092C001C093BF018C2FB0
:100A500090E008171907E9F7CE2D87018EEC92E098
:100A60000E94A203F80181938F018E2F8C1B8D179A
:100A7000ACF381E0DF91CF911F910F91FF90EF9048
:100A8000BF90AF909F908F907F906F905F904F90AE
:100A9000089585EE96CF8091090290910A02A09167
:100AA0000B02B0910C02892B8A2B8B2B09F48FCF70
:100AB0000E94E4014090090250900A0260900B02EB
:100AC00070900C02681979098A099B094616570625
:100AD0006806790608F07BCFB1CF80E0CBCF0F93CB
:100AE0001F93CF93DF9300D0CDB7DEB78B018983FF
:100AF00062E0CE0101960E946504882381F089811D
:100B00009A81982789279827F8019183808381E02B
:100B10000F900F90DF91CF911F910F910895F801E1
:100B200011821082F5CF0F931F93CF93DF9300D0E4
:100B3000CDB7DEB78B01898362E0CE0101960E94BA
:100B40006504882381F089819A81982789279827CD
:100B5000F8019183808381E00F900F90DF91CF9116
:100B60001F910F910895F80111821082F5CF4F92D5
:100B70005F926F927F928F929F92AF92BF92CF922D
:100B8000DF92EF92FF920F931F93CF936B017C0143
:100B9000742EAC019B010E94D00E882399F084E250
:100BA00091E0CF911F910F91FF90EF90DF90CF9048
:100BB000BF90AF909F908F907F906F905F904F907D
:100BC0000C94140446015701E894B7F82FEF3FEF57
:100BD0004FE75FE7C501B4010E94D00E81110DC03F
:100BE0002FEF3FEF4FE75FE7C501B4010E94060D0D
:100BF00018161CF488E291E0D4CF2FEF3FEF4FE7B7
:100C00005FE4C701B6010E945E0E18161CF48CE268
:100C100091E0C7CF2FEF3FEF4FE75FECC701B60181
:100C20000E94060D87FDF3CF20E030E0A901C70147
:100C3000B6010E94060D10E000E087FF0AC06DE2D9
:100C400081E392E00E942B018C01F7FAF094F7F80F
:100C5000F094C0E060E070E080E09FE37C1641F03B
:100C600020E030E040E251E40E940B0DCF5FF6CF70
:100C7000A70196010E949A0C2B013C010E947D0D58
:100C80004B015C014AE00E9421047C01E00EF11E50
:100C9000CC23C1F1C501B4010E94AC0D9B01AC0194
:100CA000C301B2010E94990C4B015C016EE281E329
:100CB00092E00E942B01E80EF91EC15018F120E0CD
:100CC00030E040E251E4C501B4010E94630E2B0103
:100CD0003C010E947D0D4B01B12CA12C4AE0C501C5
:100CE000B4010E942104E80EF91EC501B4010E945E
:100CF000AC0D9B01AC01C301B2010E94990C4B01E8
:100D00005C01DBCFC701CF911F910F91FF90EF9056
:100D1000DF90CF90BF90AF909F908F907F906F901B
:100D20005F904F90089585ED8093BC0080910902FB
:100D300090910A02A0910B02B0910C020796A11D9E
:100D4000B11D23E0B695A795979587952A95D1F77C
:100D50002091BC0024FD03C0109207020895409129
:100D6000090250910A0260910B0270910C02452B0E
:100D7000462B472B69F30097A105B10541F02AE204
:100D80002A95F1F700C00197A109B109E1CF80913F
:100D900008020C9481021F920F920FB60F92112439
:100DA0002F933F934F935F936F937F938F939F9373
:100DB000AF93BF93EF93FF9381E392E00E94090109
:100DC000FF91EF91BF91AF919F918F917F916F9123
:100DD0005F914F913F912F910F900FBE0F901F90F9
:100DE00018951F920F920FB60F9211242F938F9385
:100DF0009F93EF93FF93E0914102F0914202808133
:100E0000E0914702F091480282FD1BC090818091E1
:100E10004A028F5F8F7320914B02821741F0E0915D
:100E20004A02F0E0EF5CFD4F958F80934A02FF91FC
:100E3000EF919F918F912F910F900FBE0F901F9068
:100E400018958081F4CF1F920F920FB60F92112444
:100E50002F933F938F939F93AF93BF938091B30151
:100E60009091B401A091B501B091B6013091B20159
:100E700023E0230F2D3758F50196A11DB11D2093B6
:100E8000B2018093B3019093B401A093B501B093E4
:100E9000B6018091B7019091B801A091B901B091CC
:100EA000BA010196A11DB11D8093B7019093B801BD
:100EB000A093B901B093BA01BF91AF919F918F9167
:100EC0003F912F910F900FBE0F901F90189526E81D
:100ED000230F0296A11DB11DD2CF1F920F920FB604
:100EE0000F9211242F933F934F935F936F937F93B0
:100EF0008F939F93AF93BF93EF93FF938091B9002C
:100F0000887F803609F44AC0F0F5883209F4A7C01A
:100F100018F5803109F49BC0B8F4882309F4F9C0AE
:100F2000883009F494C0FF91EF91BF91AF919F91E8
:100F30008F917F916F915F914F913F912F910F9082
:100F40000FBE0F901F901895883109F488C0803229
:100F500051F78093050214C0803409F49DC040F419
:100F60008033B9F38833F9F68093050285ECB0C07D
:100F7000803509F485C0883509F496C0883499F61F
:100F80000E949306D0CF883909F48CC038F5883791
:100F900029F050F4883611F0803729F683E08093E9
:100FA00007021092B10157C0883809F47BC080391C
:100FB00019F0803809F0B7CF8091B101803208F084
:100FC00071C0E091B10181E08E0F8093B1018091F9
:100FD000BB00F0E0EF56FE4F80833DC0803B39F010
:100FE000E0F4803A09F479C0883A09F09CCF84E0B3
:100FF000809307021092900110928F01E091BD0141
:10100000F091BE01099580918F0181110FC081E09F
:1010100080938F0110926F0109C0803C09F4A6CF24
:10102000883C09F4A3CF883B09F07DCFE091900183
:1010300081E08E0F80939001F0E0E159FE4F8081B6
:101040008093BB009091900180918F0129C0809185
:10105000E2018093BB0085EC8093BC0064CF90914B
:10106000040280910302981758F5E091040281E090
:101070008E0F80930402F0E0ED51FE4F8081E9CFA6
:10108000E091040281E08E0F809304028091BB0006
:10109000F0E0ED51FE4F80839091040280910302B5
:1010A0009817C8F285E8D8CFE091040281E08E0F4E
:1010B000809304028091BB00F0E0ED51FE4F8083ED
:1010C0008091060281115CCF81E08093E10184EA86
:1010D0008093BC001092070226CF85EC8093BC0061
:1010E000109207028091B101803230F4E091B10199
:1010F000F0E0EF56FE4F10826091B10170E0E09198
:10110000BB01F091BC0181E991E009951092B10118
:101110000ACF1092050234CFE1E3F2E0138212828B
:1011200088EE93E0A0E0B0E084839583A683B78344
:1011300024E031E03183208325EC30E035872487BB
:1011400024EC30E03787268720EC30E0318B208B91
:1011500021EC30E0338B228B22EC30E0358B248B7A
:1011600026EC30E0378B268B118E128E138E148E68
:10117000EEECF2E01382128284839583A683B78318
:1011800086E191E0918380830895CF93DF93CDB77B
:10119000DEB72F970FB6F894DEBF0FBECDBF7894A1
:1011A00084B5826084BD84B5816084BD85B582606C
:1011B00085BD85B5816085BD80916E00816080931D
:1011C0006E00109281008091810082608093810086
:1011D0008091810081608093810080918000816096
:1011E000809380008091B10084608093B1008091F1
:1011F000B00081608093B00080917A008460809319
:101200007A0080917A00826080937A0080917A00DF
:10121000816080937A0080917A00806880937A0060
:101220001092C100E0914102F091420282E080837D
:10123000E0913D02F0913E021082E0913F02F09178
:1012400040028FEC808310924902E0914502F091B8
:10125000460286E08083E0914302F091440280815F
:1012600080618083E0914302F09144028081886034
:101270008083E0914302F091440280818068808302
:10128000E0914302F091440280818F7D808310922F
:10129000C0011092BF0110920E02109230020E9403
:1012A000630289E890E09093BE018093BD018AE8D3
:1012B00090E09093BC018093BB016AED72E08AEAF2
:1012C0000E949305882309F470C16CED72E08CEAEA
:1012D0000E949305882309F468C16EED72E08EEADE
:1012E0000E949305882309F460C16AEE72E080EBE6
:1012F0000E946F05882309F458C16CEE72E082EBFE
:101300000E946F05882309F450C16EEE72E084EBF1
:101310000E946F05882309F448C160EE72E086EBF5
:101320000E949305882309F440C162EE72E088EBC5
:101330000E949305882309F438C164EE72E08AEBB9
:101340000E949305882309F430C166EE72E08CEBAD
:101350000E949305882309F428C168EE72E08EEBA1
:101360000E949305882309F420C16091DE027091E8
:10137000DF02072E000C880B990B0E94AE0D20E0B7
:1013800030E040EA5BE30E94630E2B013C01609178
:10139000EA027091EB0290E080E00E94AC0D2FE633
:1013A00032E143E053E30E94630E6B017C016091E4
:1013B000E0027091E102072E000C880B990B0E944D
:1013C000AE0D20E030E048EC57E30E94630E4B0185
:1013D0005C016091EC027091ED0290E080E00E946F
:1013E000AC0D2DEC3CEC4CE454E30E94630E609396
:1013F000F0027093F1028093F2029093F3026091F5
:10140000EE027091EF0290E080E00E94AC0D6093DC
:10141000F4027093F5028093F6029093F7026091C4
:10142000E6027091E702072E000C880B990B0E94D0
:10143000AE0D2AE037ED43EA5DE30E94630E609350
:10144000F8027093F9028093FA029093FB02609184
:10145000E8027091E902072E000C880B990B0E949C
:10146000AE0D20E030E040E253E40E940B0D6093AB
:10147000FC027093FD028093FE029093FF02609144
:10148000DA027091DB02072E000C880B990B0E9488
:10149000AE0D609300037093010380930203909359
:1014A00003036091DC027091DD02072E000C880BB3
:1014B000990B0E94AE0D20E030E040EA5CE30E9410
:1014C000630E609304037093050380930603909367
:1014D00007036091E2027091E302072E000C880B73
:1014E000990B0E94AE0D20E030E048E45AE30E94E0
:1014F000630E609308037093090380930A0390932B
:101500000B0320E030E040E057E4C701B6010E9441
:10151000630E60930C0370930D0380930E039093FE
:101520000F03A7019601C301B2010E94630E6093ED
:101530001003709311038093120390931303A5017A
:101540009401C701B6010E94630E60931403709367
:10155000150380931603909317038CEE91E5A7E192
:10156000B0E48093180390931903A0931A03B093E7
:101570001B0380E394E3AEE7BFE380931C039093E7
:101580001D03A0931E03B0931F0380E097E5A4E919
:10159000B6E38093200390932103A0932203B0939A
:1015A000230380E391E00E94140404EF11E087E735
:1015B000282E96EF392E09832EE22A8310930D02EE
:1015C00020922F0210920E021092300242E050E060
:1015D000BE016F5F7F4F8EEC92E00E94B50381E009
:1015E0000E94A20280932403811196C168EE73E0E9
:1015F00080E090E00E940902398262E0CE0101960B
:101600000E946504882309F487C179808A818C83CC
:10161000C090F002D090F102E090F202F090F3025C
:101620008090F4029090F502A090F602B090F7023C
:101630008091F8029091F902A091FA02B091FB0218
:1016400088879987AA87BB878091FC029091FD02C9
:10165000A091FE02B091FF028C879D87AE87BF8765
:1016600009830A8310930D0220922F0210920E021A
:101670001092300242E050E0BE016F5F7F4F8EEC6F
:1016800092E00E94B50381E00E94A20280932403AD
:10169000811142C16AE170E080E090E00E9409029D
:1016A000398263E0CE0101960E946504882309F423
:1016B00033C1672D70E090E080E00E94AE0D20E025
:1016C00030E040E853E40E94630E2B013C01AC8102
:1016D0006A2F70E090E080E00E94AE0D9B01AC01AB
:1016E000C301B2010E949A0CA50194010E94990CB9
:1016F000A70196010E94630E6B017C012C853D853C
:101700004E855F850E949A0C9B01AC0168857985A6
:101710008A859B850E940B0DA70196010E949A0C59
:101720006C837D838E839F8320E030E048EC51E41E
:101730000E94990C6B017C01AC019B010E94630E1D
:101740004B015C01698170E090E080E00E94AE0D89
:1017500020E030E040E853E40E94630E2B013C019E
:101760006A8170E090E080E00E94AE0D9B01AC01C8
:10177000C301B2010E949A0C2B013C016B8170E005
:1017800090E080E00E94AE0D20E030E040E85BE3B6
:101790000E94630E9B01AC01C301B2010E949A0C2E
:1017A000688779878A879B8720910803309109038E
:1017B00040910A0350910B03C501B4010E94630ECE
:1017C0002B013C0120910403309105034091060355
:1017D00050910703C701B6010E94630E9B01AC0143
:1017E000C301B2010E949A0C2091000330910103C1
:1017F00040910203509103030E949A0C9B01AC019B
:10180000688579858A859B850E94990C2B013C010E
:101810002091140330911503409116035091170342
:10182000C501B4010E94630E4B015C0120911003BD
:10183000309111034091120350911303C701B60177
:101840000E94630E9B01AC01C501B4010E949A0C79
:1018500020910C0330910D0340910E0350910F0322
:101860000E949A0C9B01AC01C301B2010E940B0DB6
:101870006B017C01AC019B010E94630E209120034F
:101880003091210340912203509123030E94630E63
:101890004B015C0120911C0330911D0340911E03FC
:1018A00050911F03C701B6010E94630E9B01AC015A
:1018B000C501B4010E949A0C2091180330911903BC
:1018C00040911A0350911B030E949A0C6B017C01FA
:1018D00084E491E00E94140442E0C701B6010E9432
:1018E000B7058FE491E00E94140489E591E00E941D
:1018F00014048CE591E00E94140442E06C817D8127
:101900008E819F810E94B70583E691E00E941404B6
:1019100089E591E00E94140480E090E0892B09F4AD
:101920004ACE0E94F500882309F445CE0E940000AB
:1019300042CE5058BB27AA270E94B10C0C94240E0B
:101940000E94160E38F00E941D0E20F039F49F3FC1
:1019500019F426F40C94130E0EF4E095E7FB0C94A6
:101960000D0EE92F0E94350E58F3BA176207730760
:101970008407950720F079F4A6F50C94570E0EF421
:10198000E0950B2EBA2FA02D0B01B90190010C018F
:10199000CA01A0011124FF27591B99F0593F50F4A7
:1019A000503E68F11A16F040A22F232F342F4427FF
:1019B000585FF3CF469537952795A795F0405395F7
:1019C000C9F77EF41F16BA0B620B730B840BBAF0C7
:1019D0009150A1F0FF0FBB1F661F771F881FC2F732
:1019E0000EC0BA0F621F731F841F48F48795779546
:1019F0006795B795F7959E3F08F0B0CF9395880F00
:101A000008F09927EE0F9795879508950E94E90DA4
:101A100008F481E008950E941F0D0C94240E0E948A
:101A20001D0E58F00E94160E40F029F45F3F29F079
:101A30000C940D0E51110C94580E0C94130E0E9420
:101A4000350E68F39923B1F3552391F3951B550B8C
:101A5000BB27AA2762177307840738F09F5F5F4F81
:101A6000220F331F441FAA1FA9F335D00E2E3AF0C0
:101A7000E0E832D091505040E695001CCAF72BD0D8
:101A8000FE2F29D0660F771F881FBB1F2617370729
:101A90004807AB07B0E809F0BB0B802DBF01FF275B
:101AA00093585F4F3AF09E3F510578F00C940D0E1D
:101AB0000C94580E5F3FE4F3983ED4F386957795E7
:101AC0006795B795F7959F5FC9F7880F911D969514
:101AD000879597F90895E1E0660F771F881FBB1F70
:101AE000621773078407BA0720F0621B730B840B1D
:101AF000BA0BEE1F88F7E09508950E943D0E88F01E
:101B00009F5798F0B92F9927B751B0F0E1F0660FC1
:101B1000771F881F991F1AF0BA95C9F714C0B13002
:101B200091F00E94570EB1E008950C94570E672F64
:101B3000782F8827B85F39F0B93FCCF38695779531
:101B40006795B395D9F73EF490958095709561951A
:101B50007F4F8F4F9F4F0895E89409C097FB3EF445
:101B600090958095709561957F4F8F4F9F4F9923EA
:101B7000A9F0F92F96E9BB279395F6958795779568
:101B80006795B795F111F8CFFAF4BB0F11F460FF28
:101B90001BC06F5F7F4F8F4F9F4F16C0882311F080
:101BA00096E911C0772321F09EE8872F762F05C094
:101BB000662371F096E8862F70E060E02AF09A952F
:101BC000660F771F881FDAF7880F9695879597F924
:101BD0000895990F0008550FAA0BE0E8FEEF1616BE
:101BE0001706E807F907C0F012161306E407F50711
:101BF00098F0621B730B840B950B39F40A2661F085
:101C0000232B242B252B21F408950A2609F4A14027
:101C1000A6958FEF811D811D089597F99F6780E834
:101C200070E060E008959FEF80EC089500240A942E
:101C30001616170618060906089500240A941216A7
:101C40001306140605060895092E0394000C11F4DA
:101C5000882352F0BB0F40F4BF2B11F460FF04C087
:101C60006F5F7F4F8F4F9F4F089557FD9058440FE0
:101C7000551F59F05F3F71F04795880F97FB991FEB
:101C800061F09F3F79F087950895121613061406A8
:101C9000551FF2CF4695F1DF08C016161706180635
:101CA000991FF1CF86957105610508940895E89410
:101CB000BB2766277727CB0197F908950E94E90D86
:101CC00008F48FEF08950E94760E0C94240E0E9463
:101CD000160E38F00E941D0E20F0952311F00C9482
:101CE0000D0E0C94130E11240C94580E0E94350EF8
:101CF00070F3959FC1F3950F50E0551F629FF0015F
:101D0000729FBB27F00DB11D639FAA27F00DB11D77
:101D1000AA1F649F6627B00DA11D661F829F222700
:101D2000B00DA11D621F739FB00DA11D621F839F87
:101D3000A00D611D221F749F3327A00D611D231F5D
:101D4000849F600D211D822F762F6A2F11249F57AB
:101D500050409AF0F1F088234AF0EE0FFF1FBB1FAE
:101D6000661F771F881F91505040A9F79E3F51056D
:101D700080F00C940D0E0C94580E5F3FE4F3983EE7
:101D8000D4F3869577956795B795F795E7959F5F17
:101D9000C1F7FE2B880F911D9695879597F90895A9
:101DA0000E94E90D880B990B0895A1E21A2EAA1B37
:101DB000BB1BFD010DC0AA1FBB1FEE1FFF1FA217FB
:101DC000B307E407F50720F0A21BB30BE40BF50BF8
:101DD000661F771F881F991F1A9469F76095709581
:101DE000809590959B01AC01BD01CF010895EE0F48
:0E1DF000FF1F0590F491E02D0994F894FFCFA9
:101DFE00000000002B018B00B8007801E900C7003D
:101E0E00DB0000000000E203B50311049203820020
:101E1E00A20393036E616E00696E66006F766600B4
:101E2E00424D5031383020696E697469616C696158
:101E3E007A65640050726573737572653A2000207E
:101E4E00685F50617363616C000D0A0054656D70BC
:0E1E5E003A2000206465677265652D43000020
:00000001FF
